:100000000C9477160C949F160C949F160C949F16C4
:100010000C949F160C949F160C949F160C949F168C
:100020000C949F160C949F160C949F160C949F167C
:100030000C949F160C94B05C0C949F160C949F1615
:100040000C949F160C94A5180C949F160C949F1654
:100050000C949F160C949F160C949F160C949F164C
:100060000C949F160C94605E0C94925E0C949F16F8
:100070000C949F160C949F160C949F160C949F162C
:100080000C949F160C949F160C949F160C949F161C
:100090000C94EE5E0C94205F0C949F160C949F16AB
:1000A0000C949F160C949F160C949F160C949F16FC
:1000B0000C949F160C949F160C949F160C949F16EC
:1000C0000C949F160C949F160C949F160C949F16DC
:1000D0000C949F160C949F160C949F160C949F16CC
:1000E0000C949F163620A120AA20B320BC20C52046
:1000F000CE20CF21D621D921DC21DF21E221E6212A
:10010000EB21F021F521F821FD21022209228D2386
:10011000E2221223142329232B232F234B244B24A5
:1001200044244B24532453244B241A2CC02C252D17
:100130002A2DAB2FD12FF32F63306F307630353D22
:100140000C3EF43E573F603F36413641CF3FEF40D3
:10015000FA403641364108410D412141294139419A
:10016000623EF741F741643E6A3EF741643E823E9B
:10017000F741A068BA68BD68B868C568CA68D6683B
:100180003A204552524F523A204348526F626F74A0
:1001900069637320554D3620494D55000A0D003ACC
:1001A000204552524F523A204D656C657869732054
:1001B0004D4C5839303631342054656D706572615C
:1001C000747572652073656E736F7273000A0D002B
:1001D0003A204552524F523A205245534554000A54
:1001E0000D003A205741524E494E473A205245435E
:1001F0004F564552454420414654455220414E20D9
:10020000554E455850454354454420534855544451
:100210004F574E212121000A0D002072756E6E6924
:100220006E67207461736B732E003A205379737478
:10023000656D20696E697469616C697A65642C20EA
:10024000000A0D000A0D446562756767696E6720D4
:1002500067726164653A20000A0D52434A203230C9
:1002600031342C2056332E300A0D7465616D6F6861
:100270006E656E616D652E64650000010000000012
:100280000000000000FF0000000001080D00FE0A51
:10029000017F030C207FFE0BFE0AFE0D0080322A38
:1002A0008AC0C0C0C0C0C0C000C0C0185484D8D864
:1002B000D8D80279896C6CFEFE6CFEFE6C6C017BFA
:1002C0008B107CD6D0F07C1E16D67C10027A8AE683
:1002D000A6EC181830306ECACE02778778CCCC786E
:1002E000CECC7E382484C0C0C0C0115B8B18306077
:1002F00060C0C0C060603018115B8BC060303018C7
:100300001818303060C00377871010FE38386C44FE
:100310001466863030FCFC3030214585F07070600A
:10032000C0166181FC22438360F060027A8A020673
:10033000060C183060C0C080027A8A386CC6C6C607
:10034000C6C6C66C38126A8A3070F0303030303031
:1003500030FC027A8A7CC6C6060C183060C0FE02E9
:100360007A8AFE060C183C060606C67C027A8A0CBF
:100370001C3C6CCCCCFE0C0C0C027A8AFEC0C0FC7F
:10038000E6060606C67C027A8A3C60C0C0FCE6C669
:10039000C6E67C027A8AFE06060C18183030303029
:1003A000027A8A7CC6C6C67CC6C6C6C67C027A8A63
:1003B0007CCEC6C6CE7E06060C7822488860F060E9
:1003C000000060F06021498960F06000F0707060AA
:1003D000C01269890C183060C06030180C14648435
:1003E000FC0000FC126989C06030180C183060C035
:1003F000027A8A7CC6C6060C181800181802798979
:100400007CFECEDED2D2DEE07E027A8A387CC6C6A0
:10041000C6FEC6C6C6C6027A8AFC6666667C666684
:100420006666FC027A8A7CE6C6C0C0C0C0C6E67CAE
:10043000027A8AFC6666666666666666FC027A8A88
:10044000FEC0C0C0F8C0C0C0C0FE027A8AFEC0C0F4
:10045000C0F8C0C0C0C0C0027A8A7CC6C6C0C0C0D6
:10046000CEC6C67C027A8AC6C6C6C6FEC6C6C6C682
:10047000C6224A8AF06060606060606060F0027A64
:100480008A0E060606060606C6C67C027A8AC6C616
:10049000CCD8F0F0D8CCC6C6027A8AC0C0C0C0C0E2
:1004A000C0C0C0C2FE027A8AC6C6EEFED6C6C6C6A6
:1004B000C6C6027A8AC6C6E6E6F6DECECEC6C60254
:1004C0007A8A7CC6C6C6C6C6C6C6C67C027A8AFCFE
:1004D000C6C6C6C6FCC0C0C0C0017B8B7CC6C6C633
:1004E000C6C6C6C6DE7C06027A8AFCC6C6C6FCF84C
:1004F000CCCCC6C6027A8A7CC6C6C07C0606C6C6F6
:100500007C126A8AFC303030303030303030027A41
:100510008AC6C6C6C6C6C6C6C6C67C027A8AC6C64D
:10052000C6C6446C6C383810027A8AC6C6C6C6C6BF
:10053000C6D6D6FE6C027A8AC6C66C6C38386C6C2D
:10054000C6C6126A8ACCCCCC7878303030303002D3
:100550007A8AFE06060C183060C0C0FE115B8BF86C
:10056000C0C0C0C0C0C0C0C0C0F8027A8A80C0C0CD
:100570006030180C060602115B8BF8181818181852
:1005800018181818F808748410386CC6017181FEA8
:10059000294383C060300277877C067EC6C6CE764C
:1005A000027A8AC0C0C0DCE6C6C6C6E6DC0277872F
:1005B0007CE6C0C0C0E67C027A8A06060676CEC615
:1005C000C6C6CE760277877CC6C6FEC0C67C027AD7
:1005D0008A3C66606060FC606060600079897ECC07
:1005E000CCCC78F07CC67C027A8AC0C0C0DCE6C67F
:1005F000C6C6C6C6224989606000E060606060F0DF
:10060000007B8B0606000E06060606C6C67C027A2E
:100610008AC0C0C0CCD8F0F0D8CCC6224A8AE060EC
:1006200060606060606060F00277876CFED6D6C65E
:10063000C6C6027787DCE6C6C6C6C6C60277877C12
:10064000C6C6C6C6C67C007989DCE6C6C6C6E6DC78
:10065000C0C000798976CEC6C6C6CE7606060277B9
:1006600087DCE6C0C0C0C0C00277877CC660380C9B
:10067000C67C027A8A60606060FC606060663C02F2
:100680007787C6C6C6C6C6CE76027787C6C6C6C632
:100690006C6C38027787C6C6C6D6D6FE6C027787E2
:1006A000C6C66C386CC6C6007989C6C6C6C6CE76C4
:1006B00006C67C027787FE0C183060C0FE116B8B7B
:1006C0003C60606030E0306060603C322A8AC0C0CC
:1006D000C0C0C0C0C0C0C0C0116B8BF018181830AB
:1006E0001C30181818F008738372FE9CFF01060A6C
:1006F00000FE070136026820FFFE08FE07FE0A0022
:100700006022176780808080800080163363A0A0FD
:10071000A00257675050F850F850500257672070A9
:10072000A07028702002576748A8502050A8900257
:10073000576740A0A040A89068261363808080126D
:10074000376720408080804020123767804020201B
:100750002040800355658850F85088035565202057
:10076000F82020113363604080055161F811336334
:1007700040E0400257670808102040808002576719
:10078000205088888850200257672060A0202020B1
:10079000F8025767708808304080F8025767F808F9
:1007A000103008887002576710305090F81010020F
:1007B0005767F880B0C8088870025767304080B02B
:1007C000C88870025767F808101020404002576729
:1007D00070888870888870025767708898680810D9
:1007E0006011376740E0400040E04011376740E06B
:1007F0004000604080124767102040804020100475
:100800005363F800F81247678040201020408002B0
:10081000576770881020200020025767708898A8BA
:10082000B0807002576720508888F8888802576720
:10083000F04848704848F002576770888080808888
:1008400070025767F04848484848F0025767F880F8
:1008500080F08080F8025767F88080F08080800206
:10086000576770888080988870025767888888F8F2
:10087000888888123767E04040404040E002576770
:10088000381010101090600257678890A0C0A09098
:1008900088025767808080808080F8025767888848
:1008A000D8A88888880257678888C8A89888880246
:1008B000576770888888888870025767F08888F042
:1008C0008080800158687088888888A870080257DE
:1008D00067F08888F0A09088025767708880700859
:1008E0008870025767F82020202020200257678850
:1008F0008888888888700257678888885050502078
:10090000025767888888A8A8D888025767888850BF
:10091000205088880257678888502020202002575E
:1009200067F80810204080F8123767E080808080E8
:1009300080E002576780804020100808123767E087
:100940002020202020E0065363205088015161F8C8
:1009500028226280400255657008788878025767BF
:100960008080B0C888C8B0025565708880887002E1
:100970005767080868988898680255657088F880F5
:1009800070025767304840F0404040005767788811
:1009900088780888700257678080B0C88888881275
:1009A00037674000C0404040E010496910003010F7
:1009B000101090906002576780808890E0908812B5
:1009C0003767C04040404040E0025565D0A8A8A825
:1009D00088025565B0C888888802556570888888FF
:1009E00070005767B0C888C8B080800057676898A3
:1009F0008898680808025565B0C8808080025565EF
:100A000070807008F00257674040F0404048300264
:100A100055658888889868025565888850502002F6
:100A200055658888A8A850025565885020508800D0
:100A3000576788889868088870025565F8102040C4
:100A4000F8124767304020C020403022176780806E
:100A50008080808080124767C02040304020C006E0
:100A6000536348A890FFFFFFFFFFFFFFFFFFFFFF5B
:100A7000FFFFFFFFFFFFFFFFFFFFFFFFFFFFFFFF86
:100A8000FFFFFFFFFFFF0A006022176780008080E2
:100A90008080800157672078A0A0A0782002576747
:100AA000304840E04048B002556588705070880179
:100AB000586888885020F82020202217678080807E
:100AC000008080800158687080E090483808701974
:100AD0003161A00257677088A8C8A888701346665D
:100AE0007090B05000F0026565244890482414428C
:100AF00062F010154161F00257677088E8C8C88835
:100B000070095161F816336340A0400256662020F8
:100B1000F82020F815456560902040F0154565E007
:100B2000106010E02822624080015666888888C8DC
:100B3000B08002576778E8E8682828282511618086
:100B4000202262408015356540C04040E013466673
:100B50006090906000F002656590482448900169BB
:100B60006940C04040E40C143C0401696940C04045
:100B700040E81404081C015969C0204020C8182806
:100B8000780802576720002020408870025868408B
:100B900020708888F888880258681020708888F843
:100BA00088880258682050708888F88888025868B9
:100BB00048B0708888F88888025868500070888823
:100BC000F888880258682050708888F888880267FA
:100BD000673C50909CF0909C0059697088808080A0
:100BE0008870204002586840F88080F08080F802C9
:100BF000586810F88080F08080F802586820F880EB
:100C000080F08080F802586850F88080F08080F88A
:100C10001238688040E040404040E0123868204090
:100C2000E040404040E012386840A0E04040404092
:100C3000E0123868A000E040404040E0025767F012
:100C40004848E84848F0025868285088C8A898885A
:100C50008802586840207088888888700258681018
:100C6000207088888888700258682050708888882A
:100C70008870025868285070888888887002586880
:100C80005000708888888870025565885020508888
:100C9000025767709898A8C8C870025868402088A2
:100CA00088888888700258681020888888888870AA
:100CB0000258682050008888888870025868500060
:100CC000888888888870025868102088885020207A
:100CD0002002576780F088F0808080025767708814
:100CE00090A09088B00258684020007008788878FA
:100CF00002586810200070087888780258682050E0
:100D00000070087888780258682850007008788841
:100D10007802576750007008788878025868205029
:100D200020700878887802656578147C907C00577C
:100D30006770888088702040025868402000708862
:100D4000F880700258681020007088F8807002588F
:100D5000682050007088F8807002576750007088D3
:100D6000F88070123868804000C0404040E012387F
:100D700068408000C0404040E012386840A000C099
:100D8000404040E0123767A000C0404040E00257BA
:100D900067C0307088888870025868285000B0C8D2
:100DA00088888802586840200070888888700258B7
:100DB0006810200070888888700258682050007081
:100DC0008888887002586828500070888888700267
:100DD0005767500070888888700355652000F800B8
:100DE000200255657898A8C8F0025868402000880D
:100DF0008888986802586810200088888898680257
:100E00005868205000888888986802576750008882
:100E100088889868005969102088889868088870C0
:100E200000586880F0888888F080800059695000F8
:100E30008888986808887001050700FF0601150278
:100E40002720FFFF06FF06FF08005022165680806D
:100E500080800080153353A0A0A002555550F85053
:100E6000F85002555570A0702870024656809020A8
:100E700040901002455540A040A05025135380805B
:100E80008012265640808080804012265680404046
:100E9000404080123555A040E040A002555520202A
:100EA000F82020113353604080044151F012225247
:100EB000C0C00344541020408012365640A0A0A069
:100EC000A04012365640C0404040E0024656609076
:100ED000102040F0024656F0106010906002465616
:100EE0002060A0F02020024656F080E010906002C2
:100EF00046566080E0909060024656F010202040F8
:100F00004002465660906090906002465660909015
:100F1000701060122555C0C000C0C0013656606018
:100F2000006040801235552040804020034353F03C
:100F300000F0123555804020408012365640A020E7
:100F40004000400246566090B0B080600246566055
:100F50009090F09090024656E090E09090E002462B
:100F600056609080809060024656E090909090E0AD
:100F7000024656F080E08080F0024656F080E08025
:100F80008080024656609080B090700246569090E5
:100F9000F0909090123656E040404040E0024656B5
:100FA00010101010906002465690A0C0C0A0900291
:100FB00046568080808080F002465690F0F09090F7
:100FC0009002465690D0D0B0B090024656609090B5
:100FD000909060024656E09090E080800147576014
:100FE000909090D06010024656E09090E0A0900261
:100FF0004656609040209060123656E04040404097
:101000004002465690909090906002465690909084
:10101000906060024656909090F0F0900246569094
:101020009060609090123656A0A0A04040400246CA
:1010300056F010204080F0123656E080808080E02C
:1010400003445480402010123656E020202020E037
:1010500016325240A0024151F01622528040024402
:10106000547090B0500246568080E09090E0023478
:101070005460808060024656101070909070024458
:101080005460B0C060024656205040E040400145E8
:101090005570906080700246568080E0909090126B
:1010A00036564000C04040E0113757200020202035
:1010B000A0400246568080A0C0A090123656C04084
:1010C000404040E0024454A0F09090024454E0902C
:1010D000909002445460909060014555E09090E0FB
:1010E000800145557090907010024454E0908080CB
:1010F00002445470C030E00246564040E040403068
:1011000002445490909070123454A0A0A040024425
:10111000549090F0F00244549060609001455590D6
:1011200090502040024454F02040F01236562040A7
:10113000C040402022165680808080808012365623
:1011400080406040408006425250A0FFFFFFFFFFFA
:10115000FFFFFFFFFFFFFFFFFFFFFFFFFFFFFFFF9F
:10116000FFFFFFFFFFFFFFFFFFFFFFFF0800502211
:1011700016568000808080800146562070A0A070A6
:10118000200245553040E040B002555588705070FF
:1011900088123656A0A040E04040221555808000BD
:1011A00080801137576080C0A06020C0173151A0E7
:1011B0000157577088A8C8A8887005335360A0608D
:1011C000035353489048034252F010143151E00148
:1011D00057577088E8C8C88870074151F0153353D5
:1011E00040A0400256562020F82020F8142454C075
:1011F0004080C0142454C0C040C016225240800118
:101200004555909090E08002465670D0D050505096
:10121000142252C0C0112252408014345440C040A5
:10122000E005335340A04003535390489001475783
:1012300080808090307010014757808080B01020EF
:1012400030014757C0C040D03070101236564000B1
:101250004080A040024656609090F0909002465622
:10126000609090F09090024656609090F0909002BE
:101270004656609090F09090024656906090F090A4
:1012800090024656606090F0909002465670A0B072
:10129000E0A0B001475760908080906040024656C1
:1012A000F080E08080F0024656F080E08080F0021E
:1012B0004656F080E08080F0024656F080E0808064
:1012C000F0123656E040404040E0123656E04040D2
:1012D0004040E0123656E040404040E0123656E0D2
:1012E00040404040E0024656E050D05050E00246B8
:1012F00056B090D0B0B090024656609090909060FA
:101300000246566090909090600246566090909091
:1013100090600246566090909090600246569060B1
:10132000909090600244549060609002465670B075
:10133000B0D0D0E002465690909090906002465611
:10134000909090909060024656909090909060029D
:101350004656900090909060123656A0A0A0404053
:101360004002465680E090E080800246566090A0A1
:101370009090A002465640207090B05002465620F1
:10138000407090B05002465620507090B0500246C7
:101390005650A07090B05002465650007090B05019
:1013A00002465660607090B05002445470B0A07015
:1013B0001135556080806040024656402060B0C0C4
:1013C00060024656204060B0C06002465640A060B1
:1013D000B0C060024656A00060B0C06012365680B1
:1013E00040C04040E01236564080C04040E01236D7
:1013F0005640A0C04040E0123656A000C04040E039
:1014000002465640306090906002465650A0E090F0
:1014100090900246564020609090600246562040D0
:101420006090906002465660006090906002465660
:1014300050A060909060024656500060909060020C
:1014400045556000F0006002445470B0D0E00246A0
:101450005640209090907002465620409090907098
:101460000246566000909090700246565000909050
:101470009070014757204090905020400146568080
:10148000E09090E08001475750009090502040013C
:10149000040600FF05010301FA20FFFF05FF05FF19
:1014A0000700401215458080800080053242A0A0D0
:1014B000024545A0F0A0F0A001364640E0C020E083
:1014C00040023545802040802002454540A040A094
:1014D0005015124280801126464080808080400155
:1014E0002646804040404080023545A040E040A074
:1014F0000235454040E040400122424080043141F5
:10150000E01211418002354520204080800235459F
:1015100040A0E0A04002354540C04040E0023545D3
:1015200040A02040E0023545E0204020C002354583
:10153000A0A0E02020023545E080C020C002354553
:101540006080C0A040023545E020408080023545E3
:1015500060A040A0C002354540A06020C0121444E5
:101560008000008001254540000040800235452074
:1015700040804020033343E000E0023545804020B6
:101580004080023545C02040004002354560A0A0A3
:10159000806002354540A0E0A0A0023545C0A0C053
:1015A000A0C002354540A080A040023545C0A0A0A3
:1015B000A0C0023545E080C080E0023545E080C033
:1015C00080800235456080A0A060023545A0A0E083
:1015D000A0A0023545E0404040E0023545202020F3
:1015E000A040023545A0A0C0A0A002354580808063
:1015F00080E0023545A0E0E0A0A002354520A0E053
:10160000A08002354540A0A0A040023545C0A0C042
:10161000808001364640A0A0A04020023545C0A0F1
:10162000C0A0A002354560804020C0023545E040A2
:10163000404040023545A0A0A0A0E0023545A0A052
:10164000A0E040023545A0A0E0E0A0023545A0A002
:1016500040A0A0023545A0A0404040023545E02012
:101660004080E0122545C0808080C00235458080E2
:10167000402020022545C0404040C005324240A0E5
:10168000013141E0152242804002344460A0A06054
:1016900002354580C0A0A0C0023444608080600252
:1016A00035452060A0A06002344440A0C0600235EF
:1016B000452040E0404001354560A06020C0023533
:1016C0004580C0A0A0A00235454000C040E00136E2
:1016D000462000202020C002354580A0C0A0A002E6
:1016E0003545C0404040E0023444A0E0A0A00234B0
:1016F00044C0A0A0A002344440A0A040013545C091
:10170000A0C0808001354560A0A06020023444A0C4
:10171000C0808002344460C020C002354540E040B3
:101720004020023444A0A0A060023444A0A0A04005
:10173000023444A0A0E0A0023444A04040A00135FF
:1017400045A0A06020C0023444E02040E0013646BD
:101750002040C040402012154580808080800136A6
:101760004680406040408005424250A0FFFFFFFF9E
:10177000FFFFFFFFFFFFFFFFFFFFFFFFFFFFFFFF79
:10178000FFFFFFFFFFFFFFFFFFFFFFFFFF0700401F
:10179000121545800080808002354540E080E040A1
:1017A00002354520406040A00244449060609002B1
:1017B0003545A040E0404012154580800080800102
:1017C000364660C0A06020C0063141A00146466098
:1017D00090D0D0906002354560A06000E0034343A4
:1017E00050A050033242E020043141E00344446001
:1017F000F0D060063141E004334340A0400235455B
:1018000040E04000E0032444C04080C0022545C0C1
:10181000408040801522424080013545A0A0A0C0F4
:101820008002454570D0D0505014114180122242A0
:10183000408003244440C0404002354540A0400061
:10184000E0034343A050A0014646808080507010C2
:101850000146468080B0102030014646C04080508E
:10186000B01002354540004080600235458040A000
:10187000E0A00235452040A0E0A0023545C040A0D0
:10188000E0A002354560C0A0E0A0023545A040A020
:10189000E0A00235454040A0E0A002454570A0F020
:1018A000A0B001364640A080A0408002354580E0CF
:1018B000C080E002354520E0C080E002354560E0B0
:1018C000C080E0023545A0E0C080E002354580E000
:1018D0004040E002354520E04040E002354540E030
:1018E0004040E0023545A0404040E0024545E05020
:1018F000D050E002454550A0E0E0A00235458040D0
:10190000A0A0400235452040A0A0400235454040FF
:10191000A0A04002454570E0A0A040023545A0408F
:10192000A0A040033343A040A002354560A0E0A042
:10193000C00235458040A0A0E00235452040A0A06F
:10194000E00235454000A0A0E0023545A000A0A07F
:10195000E00235452000A0404002354580C0A0C0CF
:101960008001364640A0C0A0E0800235458040603E
:10197000A060023545204060A060023545600060EF
:10198000A06002454550A060A060023545A00060FF
:10199000A060023545400060A06002444470B0A0E1
:1019A0007001354540A08060400235458040A0C0B0
:1019B000600235452040A0C060023545C040A0C04F
:1019C00060023545A040A0C06002354580404040DF
:1019D000E002354520C04040E002354540A040408F
:1019E000E0023545A000C040E0023545A04060A0BF
:1019F0004002454550A0C0A0A0023545804040A00F
:101A000040023545204040A040023545400040A0FE
:101A100040023545E00040A040023545A00040A00E
:101A2000400235454000E0004002344460A0A0C0C0
:101A30000235458040A0A0600235452040A0A0604E
:101A40000235454000A0A060023545A000A0A0607E
:101A50000136462040A0E020C00136468080C0A06C
:101A6000C080013646A000A0E020C03A2045525276
:101A70004F523A3A464154414C3A57454E545F49C9
:101A80004E544F3A7377697463685B646973702E60
:101A900030365D3A44454641554C545F43415345C9
:101AA000000A0D003A204552524F523A3A464154EC
:101AB000414C3A57454E545F494E544F3A737769FB
:101AC0007463685B646973702E30355D3A444546D3
:101AD00041554C545F43415345000A0D003A20459F
:101AE00052524F523A3A464154414C3A57454E545D
:101AF0005F494E544F3A7377697463685B646973E6
:101B0000702E30345D3A44454641554C545F434154
:101B10005345000A0D003A204552524F523A3A4678
:101B20004154414C3A57454E545F494E544F3A73D5
:101B300077697463685B646973702E30335D3A440F
:101B4000454641554C545F43415345000A0D003A08
:101B5000204552524F523A3A464154414C3A574529
:101B60004E545F494E544F3A7377697463685B64AF
:101B70006973702E30325D3A44454641554C545F8E
:101B800043415345000A0D003A204552524F523A04
:101B90003A464154414C3A57454E545F494E544F92
:101BA0003A7377697463685B646973702E30315D72
:101BB0003A44454641554C545F43415345000A0D54
:101BC0000002007800000000000000000000020099
:101BD000FC000000000000000000000700BF000043
:101BE00000000000000000000F00BE000000000028
:101BF0000000000000DE01FF000000000000000007
:101C00000000DE01FB00000000000000000000FCFE
:101C1000017E00000000000000000000F800F80055
:101C2000000000000000000000F807E000000000D5
:101C3000000000000000FE3DC001000000000000A8
:101C40000000009F1FC00300000000000000000013
:101C5000020E800700000000000000000000209E2F
:101C600003000000000000C044040060BF01000049
:101C700000000000806A060080710C000000000077
:101C800000C04A070080780EF007800100F8434A40
:101C90000400C06C14380F800100FCC1440400C073
:101CA000DE2C180C8001000E0000000080AF6818C8
:101CB0000C800300060000000000CB58388E8F1FF8
:101CC0003E0618E30300007C70F8CF993367061CCA
:101CD000730700007C6CF8C7B873E3061C3306007A
:101CE00000E84F18C7B871E3061C3B060000FC3A39
:101CF00018CEB871E30E1C3B060000FF2E18CEB9BB
:101D000073671C183B060080CF15189C1F3F7EF898
:101D1000FBFB0300E0800F10180F1E3CF0F1F901EF
:101D200000B081060000000000000038000078814B
:101D30000500000000000000300000D881072000EE
:101D4000E00000000E000500B401072030B00100E3
:101D5000001A000400EC8D032001B16D2300DE6049
:101D6000050078FF02A0BAF22E5107524E05005826
:101D7000DC02B0AA32C65605562A05003888021879
:101D800019316C23435E6605003C18030000000017
:101D90000000000000001C10030000000000000014
:101DA0000000001CF0010000000000000000000026
:101DB00014C80100000000000000000000286C00B2
:101DC00000000000000000000000283800000000B3
:101DD00000000000000000301800000000000000BB
:101DE000000000FFFF3F00F80F00F8FFFF0000FEBB
:101DF000FF03FFFFFF01F80F00FFFFFF0380FFFF5E
:101E00000FFFFFFF07F80FC0FFFFFF0FE0FFFF0FFF
:101E1000FFFFFF0FF80FE0FF87FF1FF07FE00FFFCE
:101E200001FC0FF80FF83F00F07FF03F0000FF01CA
:101E3000FC0FF80FFC1F00E0FFF03F0000FF01FC6B
:101E40000FF80FFC0F00C0FFF0FF0100FF81FF073C
:101E5000F80FFC0F00C0FFE0FF3F00FFFFFF01F89D
:101E60000FFC0F00C0FF80FFFF03FFFF3F00F80FD4
:101E7000FC0F00C0FF00FEFF0FFFFF7F00F80FFC0C
:101E80000F00C0FF00F0FF1FFF81FF01F80FFC0FE4
:101E900000C0FF0000F83FFF01FF03F80FFC0F0038
:101EA000E07F0000F03FFF01FE07F80FF83F00F071
:101EB0003F0000F03FFF01FC0FF80FF0FF00FE1F96
:101EC000F801F81FFF01FC1FF80FC0FFFFFF0FF81C
:101ED000FFFF0FFF01F83FF80F80FFFFFF03F0FF48
:101EE000FF03FF01F03FF80F00FCFF3F00C0FFFFC2
:101EF00000FF01E03FE00700F8FF3F00C0FFFF00E8
:101F0000FF01F03FF80F00FFFFFF01F0FFFF03FFAD
:101F100001F81FF80FC0FFFFFF07F8FFFF0FFF01D9
:101F2000FC0FF80FF0FF87FF1FF80FFC1FFF01FEEB
:101F300007F80FF81F00F03D3000F03FFF01FF03EE
:101F4000F80FB80F00E04F0000F03FDB81FF0168A1
:101F50000E540C0080770000F83F1FBC7900000889
:101F60002C010000410000F01D06101200000C04BE
:101F70000000000000808101270016001800040402
:101F8000000000000000000000000200000000004F
:101F9000000040000000000080FF1F000000000063
:101FA000F0FFFF0000000000FEFFFF0700000080C0
:101FB000FFFFFF1F000000C0FFFFFF3F000000F019
:101FC000FFFFFFFF000000F8FFFFFFFF010000FC24
:101FD000FFFFFFFF030000FEFFFFFFFF070000FF02
:101FE000FFFFFFFF0F0080FFFF03FCFF1F00C0FF8C
:101FF000FF03FCFF3F00E0FFFF03FCFF7F00E0FF6B
:10200000FF03FCFF7F00F0FFFF03FCFFFF00F8FF72
:10201000FF03FCFFFF00F8FFFF03FCFFFF01F8FFD9
:10202000FF03FCFFFF01FCFFFF03FCFFFF03FCFFBE
:10203000FF03FCFFFF03FEFFFF03FCFFFF03FEFFA8
:10204000FF03FCFFFF07FEFFFF03FCFFFF07FEFF90
:10205000FF03FCFFFF07FFFFFF07FEFFFF0FFFFF70
:10206000FF07FEFFFF0FFFFFFF07FEFFFF0FFFFF52
:10207000FF07FEFFFF0FFFFFFF07FEFFFF0FFFFF42
:10208000FF07FEFFFF0FFFFFFF07FEFFFF0FFFFF32
:10209000FF07FEFFFF0FFFFFFF07FEFFFF0FFFFF22
:1020A000FF07FEFFFF0FFFFFFF07FEFFFF0FFFFF12
:1020B000FF0FFFFFFF0FFEFFFF0FFFFFFF07FEFFFA
:1020C000FF0FFFFFFF07FEFFFF0FFFFFFF07FCFFF4
:1020D000FFFFFFFFFF03FCFFFFFFFFFFFF03FCFF0E
:1020E000FFFFFFFFFF03F8FFFF03FCFFFF01F8FF07
:1020F000FF03FCFFFF01F0FFFF03FCFFFF00F0FF09
:10210000FF03FCFFFF00E0FFFF03FCFF7F00E0FF99
:10211000FF03FCFF3F00C0FFFF03FCFF3F0080FF09
:10212000FF03FCFF1F0000FFFFFFFFFF0F0000FE8B
:10213000FFFFFFFF070000FCFFFFFFFF030000F8A9
:10214000FFFFFFFF010000F0FFFFFFFF000000C0E6
:10215000FFFFFF3F00000080FFFFFF0F00000000B7
:10216000FEFFFF0700000000F0FFFF00000000007E
:1021700080FF1F000000FCFFFF070600000C0300AB
:102180000018010000100100001001000010010003
:1021900000100100001001000010010000100100FB
:1021A000001001FE0F1001020810010208100102C8
:1021B0000810010208100102081001FE0F100100B2
:1021C00000100100001001000010010000100100CB
:1021D00000100100001001000010010000100300B9
:1021E00000180600000CFCFFFF07FCFFFF7F000645
:1021F0000000C00003000080010100000001010098
:1022000000000101000000010100000001010000C8
:1022100000010100000001010000000101000000B8
:1022200001010000000101FC7F00010104400001E8
:1022300001044000010104400001010440000101CB
:10224000044000010104400001010440000101FCC0
:102250007F000101000000010100000001010000F9
:102260000001010000000101000000010100000068
:102270000101000000010100000001010000000157
:102280000300008001060000C000FCFFFF7F00FC8F
:10229000FFFFFF07060000000C030000001801000C
:1022A00000001001000000100100000010010000FB
:1022B00000100100000010010000001001000000EB
:1022C00010010000001001000000100100000010CB
:1022D000010000001001F8FF0310010800021001C6
:1022E0000800021001080002100108000210010895
:1022F0000002100108000210010800021001F8FF9E
:102300000310010000001001000000100100000097
:10231000100100000010010000001001000000107A
:102320000100000010010000001001000000100179
:10233000000000100100000010030000001806005B
:1023400000000CFCFFFFFF07FCFFFFFF7F00060003
:102350000000C00003000000800101000000000137
:102360000100000000010100000000010100000068
:102370000001010000000001010000000001010057
:102380000000000101000000000101000000000148
:102390000100000000010100000000010100000038
:1023A000000101F0FF1F00010110001000010110E9
:1023B00000100001011000100001011000100001C8
:1023C00001100010000101100010000101100010A8
:1023D000000101100010000101F0FF1F00010100C9
:1023E00000000001010000000001010000000001E8
:1023F00001000000000101000000000101000000D8
:1024000000010100000000010100000000010100C6
:1024100000000001010000000001010000000001B7
:1024200001000000000101000000000103000000A5
:10243000800106000000C000FCFFFFFF7F000000DD
:10244000000000000000000000000000000000008C
:10245000000000000000000000000000000000007C
:102460000000000000000000000080FFFF3F0000AF
:1024700000000000000000000000C000006000003C
:1024800000000000000000000000400000400000CC
:1024900000000000000000000000400000400000BC
:1024A00000000000000000000000400000400000AC
:1024B000000000000000000000004000004000009C
:1024C000000000000000000000004000004000008C
:1024D000000000000000000000004000004000007C
:1024E000000000000000000000004000004000006C
:1024F0000000000000000000000040E0FF4000007D
:1025000000000000000000000000402080400000AB
:10251000000000000000000000004020804000009B
:10252000000000000000000000004020804000008B
:1025300000000000000000000000002080400000BB
:1025400000008000000000000000402080400400E7
:102550000000800000000000000040E0FF40040098
:1025600000008000000000000000400000400EC39A
:10257000D10C8E4607A3C3690C065C0C0040842472
:10258000B21391C9886424DA130962120040440826
:1025900012A1A0505028080AA11041210040C48F68
:1025A00013A1A050D02F880BA11F413F00404440F1
:1025B00012A1A0505020480AA1004101004044202F
:1025C00012A1A0505020280AA10041010040542827
:1025D000132191505028280BA1106121006088E739
:1025E00012218E509027E80A214F5E9EFF3F000087
:1025F00000000000000000000000000000000000DB
:1026000000000000000000000000000000003A2070
:1026100052657365743A3A736D5F646F743A646FB0
:10262000745F74696C655F6D6964646C653A736D41
:102630005F726F746174653A736D5F7475726E3A30
:1026400072616D705F72656164793A736D5F645F2A
:102650006C723A736D5F6464697374000A0D003ABA
:1026600020464154414C204552524F523A20574542
:102670004E5420494E544F2064726976655F6469F8
:10268000737428293A736D5F6464697374204445D8
:102690004641554C54204341534521000A0D003A10
:1026A0002064726976655F6469737428293A2064CE
:1026B0006F6E652E20000A0D003A206472697665FF
:1026C0005F646973742829000A0D003A204641545A
:1026D000414C204552524F523A2057454E542049C2
:1026E0004E544F2064726976655F7475726E282946
:1026F0003A736D5F7475726E2044454641554C5473
:10270000204341534521000A0D003A206472697646
:10271000655F7475726E28293A20646F6E652E208D
:10272000000A0D003A2064726976655F7475726EF6
:1027300028293A20616C69676E6564000A0D003AC9
:102740002064726976655F7475726E2829000A0DBF
:10275000003A20464154414C204552524F523A20B3
:1027600057454E5420494E544F2064726976655F38
:10277000726F7461746528293A736D5F726F74614A
:1027800074652044454641554C54204341534521EE
:10279000000A0D003A2064726976655F6F6E6554B9
:1027A000696C6528293A20646F6E652E20000A0D39
:1027B000003A2064726976655F726F74617465288F
:1027C000293A3A7073695F73746172743A20000A2F
:1027D0000D003A204552524F523A3A464154414C2C
:1027E0003A2077656E7420696E746F206472697622
:1027F000655F6F6E6554696C6528293A736D5F6417
:102800006F743A44454641554C545F43415345002B
:102810000A0D003A2064726976655F6F6E655469CF
:102820006C6528293A646F6E65000A0D003A2064D1
:10283000726976655F6F6E6554696C6528293A3AEE
:10284000656E635F6C725F73746172743A000A0D37
:10285000003A2064726976655F6F6E6554696C65D5
:1028600028293A3A646F6E7473746172743A6469B9
:102870007374000A0D00B8B43A204552524F523AD0
:102880003A464154414C3A57454E545F494E544F95
:102890003A7377697463685B6D617A652E31385D70
:1028A0003A44454641554C545F43415345000A0D57
:1028B000003A204552524F523A3A464154414C3A1E
:1028C00057454E545F494E544F3A73776974636865
:1028D0005B6D617A652E31375D3A44454641554C12
:1028E000545F43415345000A0D003A204552524F70
:1028F000523A3A464154414C3A57454E545F494E3C
:10290000544F3A7377697463685B6D617A652E30F2
:10291000365D3A44454641554C545F43415345006A
:102920000A0D00636C636E6561722C2074696C65BE
:102930007265733A003A204552524F523A3A464134
:1029400054414C3A57454E545F494E544F3A737771
:10295000697463685B6D617A652E30335D3A444516
:102960004641554C545F43415345000A0D003A20FF
:102970004552524F523A3A726F626F742E706F73B3
:102980002E793A4D454D4F52595F544F4F5F534D3D
:10299000414C4C3A52455354415254000A0D003AAE
:1029A000204552524F523A3A726F626F742E706FD6
:1029B000732E783A4D454D4F52595F544F4F5F53E8
:1029C0004D414C4C3A52455354415254000A0D006B
:1029D0003A204552524F523A3A464154414C3A57A6
:1029E000454E545F494E544F3A7377697463685B40
:1029F0006D617A652E30325D3A44454641554C54FE
:102A00005F43415345000A0D003A204552524F5250
:102A10003A3A464154414C3A57454E545F494E5418
:102A20004F3A7377697463685B6D617A652E3032F3
:102A30005D3A44454641554C545F43415345000A75
:102A40000D006D73003A20444F4E453A3A7265735B
:102A5000746172743A000D003A204552524F523A56
:102A60003A464154414C3A57454E545F494E544FB3
:102A70003A7377697463685B6D617A652E30335D94
:102A80003A44454641554C545F43415345000A0D75
:102A9000003A204552524F523A3A464154414C3A3C
:102AA0006D617A655F6368674F6666736574282930
:102AB0003A43414E54000A0D003A204552524F52BB
:102AC0003A3A464154414C3A57454E545F494E5468
:102AD0004F3A7377697463685B6D617A652E31353F
:102AE0005D3A44454641554C545F43415345000AC5
:102AF0000D005D5F7A3A20005D2E793A20005D2E50
:102B0000783A20003A206E65773A3A6F66667365C8
:102B1000745B000A0D003A204552524F523A3A4631
:102B20004154414C3A57454E545F494E544F3A73C5
:102B300077697463685B6D617A652E31345D3A4400
:102B4000454641554C545F43415345000A0D003AF8
:102B5000204552524F523A3A464154414C3A574519
:102B60004E545F494E544F3A7377697463685B6D96
:102B7000617A652E31385D3A44454641554C545F83
:102B800043415345000A0D003A204552524F523AF4
:102B90003A464154414C3A57454E545F494E544F82
:102BA0003A7377697463685B6D617A652E31385D5D
:102BB0003A44454641554C545F43415345000A0D44
:102BC000003A204552524F523A3A464154414C3A0B
:102BD00057454E545F494E544F3A73776974636852
:102BE0005B6D617A652E30395D3A44454641554CFE
:102BF000545F43415345000A0D003A204552524F5D
:102C0000523A3A464154414C3A57454E545F494E28
:102C1000544F3A7377697463685B6D617A652E30DF
:102C2000385D3A44454641554C545F434153450055
:102C30000A0D003A204552524F523A3A4641544109
:102C40004C3A57454E545F494E544F3A7377697426
:102C500063685B6D617A652E30385D3A4445464164
:102C6000554C545F43415345000A0D003A204552EC
:102C7000524F523A3A464154414C3A57454E545FAE
:102C8000494E544F3A4953522854494D4552325FA8
:102C9000434F4D50415F76656374295B7461736B7C
:102CA0005F6164635D3A3A636173653A6465666166
:102CB000756C74000A0D002200250028002B002EE0
:102CC000003100340002012100240027002A002DD9
:102CD00000300033000101FFD0FFE0FFCFFF64FFB1
:102CE000D1FF32380C060201FF64FFD0FFFE112431
:102CF0001FBECFEFD1E2DEBFCDBF00E00CBFE0EDE5
:102D0000F7E18AEA92E28193E030F907E0F315E017
:102D1000A0E0B2E0E2E1F9ED00E00BBF02C00790F5
:102D20000D92A634B107D9F717E1A6E4B5E001C0CA
:102D30001D92A03DB107E1F797D20C94876C0C94DB
:102D400000008F929F92AF92BF92CF92DF92EF924C
:102D5000FF9280915C0524E08202C00111248F70F3
:102D600080935C05319B03C0826080935C05329B3D
:102D700005C080915C05816080935C0540915C0595
:102D8000E42FFF27E7FDF095E658FD4F44915527C6
:102D900047FD5095652F752F8091580590915905E5
:102DA000A0915A05B0915B05840F951FA61FB71F10
:102DB0008093580590935905A0935A05B0935B05ED
:102DC000009902C080E001C083E0679B02C091E0EF
:102DD000892740915705481B40FF3EC08093570507
:102DE0004270552747FD5095415051096A01EE2424
:102DF000D7FCE094FE2C80916B1690916C16A091FC
:102E00006D16B0916E168C0D9D1DAE1DBF1D80936D
:102E10006B1690936C16A0936D16B0936E1657FFB9
:102E200003C0519541955109662757FD6095762F4E
:102E300080916F1690917016A0917116B0917216D4
:102E4000840F951FA61FB71F80936F16909370165F
:102E5000A0937116B0937216669902C080E001C00B
:102E600083E0019B02C091E0892740915605481BF1
:102E700040FF3EC0809356054270552747FD509550
:102E8000415051096A01EE24D7FCE094FE2C809158
:102E9000771690917816A0917916B0917A168C0DCC
:102EA0009D1DAE1DBF1D8093771690937816A0933D
:102EB0007916B0937A1657FF03C051954195510981
:102EC000662757FD6095762F80917B1690917C1632
:102ED000A0917D16B0917E16840F951FA61FB71F77
:102EE00080937B1690937C16A0937D16B0937E16EC
:102EF00060916B1670916C1680916D1690916E16A4
:102F000022E0822E912CA12CB12CA50194010E94CB
:102F10007F6B69017A0160917716709178168091C4
:102F2000791690917A16A50194010E947F6BC20ECA
:102F3000D31EE41EF51EC0928116D0928216E09236
:102F40008316F092841680914B058F5F80934B051A
:102F5000893109F063C08091970290919802181608
:102F600019062CF401979093980280939702809110
:102F7000510518161CF4815080935105809150051D
:102F800018161CF481508093500580914F05181637
:102F90001CF4815080934F05809195029091960288
:102FA000181619062CF401979093960280939502B7
:102FB00080914E0518161CF4815080934E05809127
:102FC0004D0518161CF4815080934D058091930295
:102FD00090919402181619062CF40197909394027C
:102FE0008093930280914C0518161CF481508093B5
:102FF0004C058091910290919202181619062CF4BA
:1030000001979093920280939102809190021816FA
:103010001CF481508093900210924B0580E0FF9049
:10302000EF90DF90CF90BF90AF909F908F900895DA
:1030300080E0089580917F16811104C080918016F0
:10304000882341F010926A16109269161092761633
:10305000109275160E944F5C80E008950E94103B0C
:10306000809367050E943A620E94696080936505BB
:1030700080E008950E94D53680E00895809154053F
:10308000811102C00E94DB3C80917F1681115BC0E0
:1030900090914A1680914605911126C08230C1F068
:1030A0004CF4882389F0813009F04BC068E080E857
:1030B00092E03DC08430A1F07CF0853009F041C041
:1030C00062E188E492E033C068E088E892E02FC0D3
:1030D0006EE082E792E02BC06CE086E692E027C0CB
:1030E0006CE08AE592E023C08230B1F044F488239A
:1030F00079F0813031F568E088E392E018C08430DF
:1031000099F074F08530E9F462E180E092E00FC05C
:1031100068E080E492E00BC06EE08AE292E007C0D3
:103120006CE08EE192E003C06CE082E192E00E94EC
:103130002234811108C0809146058F5F8093460537
:1031400002C01092460580E008951F920F920FB6BC
:103150000F9211240BB60F92EF92FF920F931F93D1
:103160002F933F934F935F936F937F938F939F938F
:10317000AF93BF93CF93DF93EF93FF938091470576
:1031800090914805A0914905B0914A050196A11D6D
:10319000B11D8093470590934805A0934905B093CE
:1031A0004A050BEE16E0CCEED6E0F12CEE24E394CB
:1031B0002B813C8189819A812817390780F1E09120
:1031C0006805F0E0E356FD4F8081F81640F5F80100
:1031D0008081811124C0F8941C821B82F801E08256
:1031E000E0916805EF5FE0936805F0E0E356FD4F7E
:1031F000F0827894ED81FE81888119958883F89416
:10320000F801108280916805E82FF0E0E356FD4F49
:1032100090919C02908381508093680578948B8173
:103220009C8101969C838B83F394085F1F4F2896A3
:10323000F6E0FF12BDCFFF91EF91DF91CF91BF91EB
:10324000AF919F918F917F916F915F914F913F913E
:103250002F911F910F91FF90EF900F900BBE0F9049
:103260000FBE0F901F901895CF93DF931F92CDB78D
:10327000DEB704B603FE03C081E0809364050E94BC
:103280007B5A0E94115B0E943D5B0E94853688E05C
:1032900090E00E944E5F88E090E00E94C05E81E076
:1032A0000E94385C0E94005B0E94675D0E94943B14
:1032B0000E9424500E94FF61E2E5F7E08FEF9FEF4C
:1032C000A0E0B0E081939193A193B19327E0E2371E
:1032D000F207C1F711E010937F162FEF2093F40649
:1032E00085E090E09093F6068093F5061092F8063C
:1032F0001092F7061092F3068EE398E19093FA0687
:103300008093F9062093EC0681E090E09093EE061E
:103310008093ED061092F0061092EF061092EB06E5
:1033200081EA96E19093F2068093F10620930407D8
:1033300089E190E0909306078093050710920807B3
:1033400010920707109203078AE198E190930A0709
:10335000809309072093FC068FE090E09093FE068F
:103360008093FD06109200071092FF061092FB0654
:103370008EE298E1909302078093010720930C0757
:1033800082E390E090930E0780930D071092100750
:1033900010920F0710920B078AE398E1909312079F
:1033A000809311072093140784E190E0909316070F
:1033B00080931507109218071092170710921307A1
:1033C00088E198E190931A07809319070E94595B4E
:1033D000882331F080E00E94765B1093540505C08D
:1033E00081E00E94765B10925405789430D68091EB
:1033F0005305882319F188E592E0E6D584E492E04C
:10340000E3D56091530570E080E090E0EFD581E472
:1034100092E0DAD5609147057091480580914905A1
:1034200090914A05E3D58AE292E0CED566E070E05D
:1034300080E090E0DBD58AE192E0C6D5809164051A
:103440008823E1F080915305882379F087E192E0A9
:10345000BBD56091470570914805809149059091D1
:103460004A05C4D582EE91E0A0D58FEF93E2E4EF58
:1034700081509040E040E1F700C000008EE10E94E2
:103480005D5B00E2FF24F39411E0E4E1EE2EF2E054
:10349000DF2EAEE1CA2EBAE0BB2E44EBA42E52E8DA
:1034A000952E67E3862E7FE0772EA8958BB1802737
:1034B0008BB90E94A43B0E94FC410E94565B88236A
:1034C00039F180914D05811127C09091510580916E
:1034D0005505911107C0811105C0D0924D0510937B
:1034E00055051AC08823C1F00E94C3340E94C24708
:1034F0001092CD051092C6051092C4051092550584
:1035000080917F168F2580937F16E092510504C02D
:1035100010924D05109255059091640580916305B8
:10352000911102C0882339F0109362058823D1F0ED
:10353000B092610519C080916705882319F08092C7
:10354000620510C080916605882319F0909262058B
:1035500009C080916505882319F0A092620502C018
:1035600010926205C0926105809152059923C9F0BD
:1035700080FD1AC080915305823078F08FED91E084
:1035800023D5609147057091480580914905909138
:103590004A052CD580ED91E017D5809152058160C8
:1035A00001C08E7F809352059091670580915205EE
:1035B0009923C9F081FD1AC080915305823078F0BB
:1035C0008DEC91E001D5609147057091480580919F
:1035D000490590914A050AD58FE991E0F5D480918B
:1035E0005205826001C08D7F8093520590916505E0
:1035F000809152059923C9F082FD1AC0809153052C
:10360000823078F08CE991E0DFD4609147057091C9
:1036100048058091490590914A05E8D480E891E0F9
:10362000D3D480915205846001C08B7F8093520572
:103630008091FC079091FD071816190684F5789E75
:10364000B001799E700D11246C52714070935F052A
:1036500060935E058091990290919A0268177907AC
:10366000C0F470939A026093990280E090E00E9407
:10367000166A20E53DE847E15DE30E94CC6A20E060
:1036800030E845EB53E40E9414690E94E5696093B9
:10369000600580916005843114F480939B026091F1
:1036A000620570E080919B024091610590E00E946C
:1036B0009B3580915D05811105C08BE197E03BD37F
:1036C00010935D05F7D580915405813019F40E945F
:1036D000902341C0823019F40E94BB243CC0833047
:1036E00019F40E94A02637C0843019F40E94922851
:1036F00032C00E94BF4229E347E067E58BE197E0D3
:10370000DAD367E37EE08BE197E0D6D10E946E5A70
:10371000A0E0B0E080936E0790936F07A0937007CE
:10372000B093710732E5432E37E0532E9FE0F2014C
:1037300021913191419151912F012F3FFFEF3F078F
:103740004105510529F0692F8AE5998363D4998150
:10375000995F9E3461F78BE197E0F1D28111A5CE9C
:1037600010925D059ACEFC01E60FF11D849190E068
:10377000982F88273196E4918E0F911D0895FC01B2
:1037800084910895FCDF882311F0823011F486E0E3
:10379000089583E0089580E0089566E0E4CF68E04E
:1037A000E2CF0A96FC01849108950B96FC01849166
:1037B0000895A0E0B0E0EFEDFBE10C94A36BEC0109
:1037C000D62E0C811D81C801DADFE82EC801DADFB0
:1037D000A82E21E0E21619F0CC24CA9402C06FE0B2
:1037E000C62EC801DEDFF82EC801DFDFB82EC80103
:1037F000D6DFE0E6ED1540F4009731F09801280F90
:10380000391F51E6F52E0FC0C801C7DFF0E498015B
:10381000FD1538F4009729F0280F391F41E4F42EE4
:1038200002C02F5E3F4FBD1440F4188A1B8A1C8AC9
:10383000198A1A8A80E090E04CC0BF14B0F34A2D78
:1038400050E0F90184918F3F19F42F5F3F4F3CC046
:10385000FD1032C0A9014F5F5F4FEE2019F0F2E07A
:10386000EF1213C0F90184918B8BFA0144914C8BB8
:10387000F9013396E491E88BF9013496E491E98BF0
:10388000F9013596E491EA8B15C0982F9F709250FC
:103890009A8B82958F70898BFA014491842F8F7057
:1038A0008C8B42954F704B8BF9013296E491E295E7
:1038B000EF70E88BC9010DC0F9013296E491EC215B
:1038C0002E0F311D240F351FFB1409F4AECFF394D6
:1038D000B8CFCDB7DEB7EAE00C94BF6B4F925F92E2
:1038E0007F928F929F92AF92BF92CF92DF92EF9290
:1038F000FF920F931F93CF93DF931F92CDB7DEB745
:103900002C01162F742E622F54DF6C01009709F4DE
:103910003CC0F2018481958135DFF82EF201838865
:1039200004899188910E8289781A172D101B282DF1
:10393000412F692DC2010E94BD63882319F1CF0C6C
:10394000D11CF7E08F0E869486948694A82CB12C17
:103950001715C1F0392D76018E2D8C19881570F44C
:10396000F701049120E0412F632FC2013983FDD17B
:10397000FFEFEF1AFF0A3981385FEECFCA0CDB1C6C
:103980001F5FE6CFF201808901C080E00F90DF91D8
:10399000CF911F910F91FF90EF90DF90CF90BF904C
:1039A000AF909F908F907F905F904F900895AF92CF
:1039B000BF92DF92EF92FF920F931F93CF93DF930B
:1039C0001F921F92CDB7DEB78C01E62EF42EDC01DC
:1039D0005596ED91FC91569729833A831995F80EE7
:1039E0002981A22E3A81B32ED12CF50121915F01BC
:1039F000222339F04F2D6E2DC80170DFE80ED80E4E
:103A0000F4CF8D2D0F900F90DF91CF911F910F91DB
:103A1000FF90EF90DF90BF90AF900895DC01149677
:103A20008D919C911597009709F43FC057962C9162
:103A30005797FC01211108C03596E4915896EC93F4
:103A40005897FC013C9611C0213041F43F96E49117
:103A50005896EC935897FC01709607C03D96E491F8
:103A60005896EC935897FC013E96849159968C9306
:103A7000599758968C915897992787FD9095599604
:103A80002C915997821B910927FD93955A962C9159
:103A90005A97203441F0829FC0011124F6E0969598
:103AA0008795FA95E1F75B968C9308952BEC3BE1B3
:103AB000FC01368B258B0895CF93DF93EC018C812D
:103AC0009D818617970741F07D836C83CE01A6DF29
:103AD0008BEC9BE19E8B8D8BDF91CF9108951F9393
:103AE000CF93DF93EC011D821C821F821E821986F8
:103AF00081E0888782E28A871F861E8680E090E0C8
:103B00002FEFFE01E80FF91F23A301968E309105D8
:103B1000C1F711E018A3CE01C9DF1F8B188E198ED3
:103B200080E48A8F1B8E84ED9FE19AAB89ABDF9195
:103B3000CF911F910895DB01ED91FC9119950895A6
:103B4000EF92FF921F93CF93DF931F921F92CDB7F7
:103B5000DEB77C01DC01D196ED91FC91D29782E039
:103B600069837A83199520E030E04AE069817A819F
:103B7000C701E1DF182FD701D196ED91FC91D297C3
:103B800083E01995D701D196ED91FC91D29780E011
:103B90001995812F0F900F90DF91CF911F91FF907A
:103BA000EF9008950F931F93CF93DF93EC018B0158
:103BB000E9A9FAA982E01995E9A9FAA981E019957C
:103BC00020E030E044E1B801CE01B5DF9E012D5C7C
:103BD0003F4F47E1B801CE01AEDFE9A9FAA980E085
:103BE0001995DF91CF911F910F910895FF920F9337
:103BF0001F93CF93DF93EC018B01E9A9FAA982E02F
:103C00001995E9A9FAA981E0199520E030E045E18C
:103C1000B801CE0190DFF82E882339F09E012D5C8B
:103C20003F4F47E1B801CE0186DFE9A9FAA980E05C
:103C300019958F2DCDB7DEB7E5E00C94C46BFC0170
:103C4000448F258F9C01245E3F4F42E374CFA1E057
:103C5000B0E0EDE2FEE10C94AB6B9E012F5F3F4FB5
:103C600046E469DF89812196E2E00C94C76BA1E00C
:103C7000B0E0EDE3FEE10C94AB6B9E012F5F3F4F94
:103C800047E459DF89812196E2E00C94C76B20E07C
:103C900030E048E450CFCF93DF93EC016A817B8121
:103CA000D6DF88836A817B81CE01E1DF89836A81E7
:103CB0007B81CE01ECDF8B879E012D5C3F4F6A81BB
:103CC0007B8147E1CE0137DFDF91CF910895CF931C
:103CD000DF93EC016A817B8133DF882321F0CE0101
:103CE000DADF81E001C080E0DF91CF910895CF92CB
:103CF000DF92EF92FF920F93CF93DF931F921F9269
:103D0000CDB7DEB76C017B012A834983E8DEF6017B
:103D1000F382E282498145A32A8124A303A3C60139
:103D2000D6DF0F900F90DF91CF910F91FF90EF9022
:103D3000DF90CF900895FC016281738133CFCF93E0
:103D4000DF93EC01EE85FF85309709F019956A81C4
:103D50007B81CE014BDFDF91CF910895362F242F49
:103D6000FC0162817381432F6ACF0F93FC01828132
:103D70009381648F458F278F068F9F01245E3F4F6D
:103D80004BE3BC01CF01D7DE0F910895AF92BF92F4
:103D9000DF92EF92FF920F931F93CF93DF931F92C7
:103DA000CDB7DEB75C01E62EF42E122F322FD62EC1
:103DB000D20E6D2D631B383048F00FEF20E04F2DF1
:103DC000C5013983D2DF39813850F3CF612F687F45
:103DD0006E0D177071F087E081278F5F87700FEF8E
:103DE00010E001C0000F8A95EAF720E04F2DC501D1
:103DF000BCDF0F90DF91CF911F910F91FF90EF905B
:103E0000DF90BF90AF900895AF92BF92DF92EF9294
:103E1000FF920F931F93CF93DF931F92CDB7DEB71F
:103E20005C01F62EE42E122F322FD42ED20E4D2D01
:103E3000431B383048F00FEF21E06F2DC501398367
:103E400094DF39813850F3CF412F487F4E0D1770E2
:103E500071F087E081278F5F87700FEF10E001C05E
:103E6000000F8A95EAF721E06F2DC5017EDF0F90E4
:103E7000DF91CF911F910F91FF90EF90DF90BF9056
:103E8000AF900895EF92FF920F931F93CF93DF931C
:103E9000EC01162FF42EE22E01E00E94BD63882370
:103EA00029F02E2D4F2D612FCE0170DFCDB7DEB75B
:103EB000E6E00C94C36BEF92FF920F931F93CF93A6
:103EC000DF93EC01162FF42EE22E022F21E00E9448
:103ED000BD63882329F02E2D4F2D612FCE0194DF55
:103EE000CDB7DEB7E6E00C94C36BDF92EF92FF92A2
:103EF0000F931F93CF93DF93EC01162FF42EE22E36
:103F0000D02E0E94BD638823C1F02E2D4F2D612F2E
:103F1000CE013CDF2D2D4F2D612FCE0175DF6FEFD0
:103F20006E0D610F2D2D4F2DCE016EDF4FEF4D0D1C
:103F30004F0D2E2D612FCE0129DFCDB7DEB7E7E083
:103F40000C94C26BEF92FF920F931F93CF93DF936A
:103F5000EC01F62EE22E142F040F2E2D412F6F2D83
:103F6000CE0114DF1F5F0113F8CFCDB7DEB7E6E057
:103F70000C94C36BDF92EF92FF920F931F93CF933A
:103F8000DF93EC01162FF42EE22ED02E0E94BD639B
:103F9000882329F02E2D4F2D612FCE01D3DFCDB7F1
:103FA000DEB7E7E00C94C26B0895CF93DF932FE761
:103FB00020934F05EC018991882319F00E94D95E66
:103FC000FACFDF91CF910895CF93DF932FE720931E
:103FD0004F05FC018491EF012196882321F00E9476
:103FE000D95EFE01F7CFDF91CF910895AFE0B0E049
:103FF000ECEFFFE10C94AB6B2AE030E0AE014F5FD9
:104000005F4F0E94126CCE010196CFDF2F96E2E047
:104010000C94C76BAFE0B0E0E0E1F0E20C94A96B68
:10402000182F062FCA01B9012AE030E0AE014F5F18
:104030005F4F0E94126C9E012F5F3F4F402F612FF8
:104040008BE197E0B4DC2F96E4E00C94C56BEF9223
:10405000FF920F93CF938091D70580FF02C0C1E0FC
:1040600059C0809164058111FACF0FC173EEE72E1C
:104070007DE1F72E0DE126E745E065E08BE197E075
:104080000E9459636DEE76E08BE197E015DD2AED35
:1040900032E047E364E18BE197E089DC6FE874E1AB
:1040A0008BE197E009DD8091D70580FF96C02BEE6C
:1040B00032E040E468E28BE197E079DC20E233E033
:1040C00049E360E08BE197E072DC25E233E04FE307
:1040D00060E08BE197E06BDC8BE197E030DE8111F3
:1040E00021C00E94565B8111FCCF80917A058330FC
:1040F00008F0B9C02FEF89E698E121508040904048
:10410000E1F700C0000080917A05873018F48F5FD6
:1041100080937A0580917A05873008F0B6C08BE1EC
:1041200097E009DE80916405811166C080917A056F
:1041300090E087309105D8F5FC01EE58FF4F0C94C4
:10414000D26B61ECE62E6BE1F62E0AE223E642E04A
:104150006EE094CF58E4E52E53E2F52E09E229E211
:1041600042E06CE28BCF4FE8E42E42E2F42E05E20F
:1041700025E242E06CE382CF3AEEE32E31E2F32E09
:1041800001E221E242E06CE479CF26E7E22E21E26F
:10419000F22E0DE12DE142E06BE570CF9EE3E92EBA
:1041A00094E2F92E0DE120E840E060E067CF8091D5
:1041B0005305823078F08EEB9BE106DF6091470576
:1041C000709148058091490590914A050FDF88E874
:1041D0009BE1FADEC093630555CF81FF03C028EF52
:1041E00032E067CF82FF03C026E033E062CF84FF76
:1041F00065CF23E133E05DCF86E9E82E8FE1F82E2D
:104200000CE32CE342E062E08BE197E00E9459630B
:104210006AE872E08BE197E04FDC2EE233E04AE09F
:1042200061E48BE197E0C3DB6DEE76E08BE197E034
:1042300043DC26E333E044E161E48BE197E0B7DB64
:1042400020E433E04EE161E48BE197E0B0DB29E468
:1042500033E048E261E48BE197E0A9DB24E533E059
:1042600042E361E436CF863041F42FEF83ED90E3F3
:10427000215080409040E1F744CF2FEF89EF90E04C
:10428000215080409040E1F73CCFCF910F91FF90BB
:10429000EF900895809179058F5F809378058091E4
:1042A000770580FD06C08360809377058FE7809354
:1042B0004E0508950F9320E846E060E08BE197E01B
:1042C000E1DD6FE874E18BE197E0F6DB809160055A
:1042D00087FD35C005E02AE040E060E08BE197E033
:1042E00004DE42E06AE08BE197E038DD8091600512
:1042F0006BE00E944B6B893024F487FF03C080E0A1
:1043000001C088E003E0282F41E061E08BE197E005
:1043100031DE20916005233634F4332727FD3095B4
:10432000432F532F04C023E630E040E050E065E027
:104330008FE070DE2EE533E045E069E104C020E661
:1043400033E045E060E08BE197E031DB80914E05A2
:10435000811119C0809179058F5F8E3019F080939B
:1043600079050CC0109279058091770581FD03C015
:104370001092780503C08D7F809377058091770533
:104380008E7F809377058091790590E08E3091053E
:1043900008F045C0FC01E758FF4F0C94D26B8091A8
:1043A000600584310CF051C075DF4FC08091640509
:1043B00026C08091630523C0809167050EC080915F
:1043C000670510C080916505837019C080916505EF
:1043D00082FF3BC0E9CF8091660580FF36C0E4CF05
:1043E0008091660581FF31C0DFCF80917F1607C0C5
:1043F00080914F051816C4F228C080915405882377
:1044000021F1D2CF809193029091940297FFCCCF6B
:104410001CC08091CD0585508230B8F4C5CF809105
:104420005305823078F085E89BE1CEDD6091470549
:10443000709148058091490590914A05D7DD8FE438
:104440009BE1C2DD81E080936305E0917805F0E0B7
:10445000EE0FFF1FEC55FD4F2081318145E063E2F7
:104460008BE197E0A4DA0F910895EF92FF920F93FA
:104470001F93CF93DF93F82ED62FC42F8AE08F158A
:1044800018F012E0E12E02C0B3E0EB2E1F2D1695BE
:104490002230E9F018F4213039F075C0233051F1A1
:1044A000243009F44AC06FC0002351F00C2F2D2F87
:1044B000211B4C2F612F6D0F8BE197E00E94D4657B
:1044C0008F2D6E2D0E943F6BF82E1D0F27C00023ED
:1044D00051F00C2F011B2D2F412F4C0F6D2F8BE115
:1044E00097E00E94D4658F2D6E2D0E943F6BF82EB1
:1044F0001C0F37C0002351F00C2F212F2D0F4C2FF4
:104500006D2F611B8BE197E00E94D4658F2D6E2D7E
:104510000E943F6BF82E8D2F811B182F0C2F0F1927
:104520002D2F4C2F612F8BE197E00E94D4650F2D2A
:104530000C0F2D2F4C2F612F21C0002351F0012F84
:104540000C0F2D2F4C2F411B6D2F8BE197E00E94FC
:10455000D4658F2D6E2D0E943F6BF82E8C2F811B02
:10456000182F2D2F2F190C2F412F6D2F8BE197E036
:104570000E94D4652F2D2D0F412F6D2F8BE197E0D9
:104580000E94D46508C06D2F611B28E633E04C2FD4
:104590008BE197E00CDACDB7DEB7E6E00C94C36BA5
:1045A0000F931F9340917605552747FD5095652F32
:1045B000752F4730510508F09AC0FA01E957FF4FAF
:1045C0000C94D26B409158055091590560915A0551
:1045D00070915B0500917105109172052091730532
:1045E00030917405401B510B620B730B849F90013B
:1045F000859F300D949F300D112480910A08909171
:104600000B08280F391F37FD05C030930B08209386
:104610000A0804C010920B0810920A0880917307D0
:10462000826014C084E018C08091580590915305B1
:10463000890F90917105891B833018F4809353057D
:1046400002C01092530580917307886080937307AE
:1046500064C082E001C083E0809354055EC0809115
:10466000730780FF0DC0609106087091070880E015
:1046700090E00E94636C809173078E7F8093730734
:104680008091730781FF0DC060910A0870910B083B
:1046900082E090E00E94636C809173078D7F80932D
:1046A00073078091730783FF0BC06091530585E00A
:1046B00090E00E94516C80917307877F809373070D
:1046C0008091730784FF0DC060914E1670914F1654
:1046D00086E090E00E94636C809173078F7E8093E8
:1046E00073071092540581E00E94765B16C080919A
:1046F0005305823078F08CE49BE166DC60914705DD
:10470000709148058091490590914A056FDC86E1DA
:104710009BE15ADC81E0809363051F910F9108951E
:104720000F936FE874E18BE197E0C6D90E94595B63
:10473000882309F447C080915005811143C08091BE
:104740007F16882309F43EC08091760584303CF4BE
:104750008230BCF4882399F1813049F01AC0873047
:10476000C4F4809175058F5F8093750528C0809192
:1047700075058F5F8093750583300CF11092750578
:104780001EC0809175058F5F809375058230B4F7E8
:1047900016C080915305823078F083E19BE114DCF0
:1047A00060914705709148058091490590914A05AF
:1047B0001DDC8DED9AE108DC81E08093630584E1E6
:1047C0008093500580917505823009F13CF488236F
:1047D00061F0813019F588EE93E01BC08330D9F089
:1047E0008430E1F481E090E014C08091580590910C
:1047F0007605890F90917105891B87301CF0109206
:10480000760522C087FD86E0809376051DC084E68C
:1048100090E0C6DE19C08AE090E0FBCF809153059E
:10482000823078F08AED9AE1CFDB60914705709194
:1048300048058091490590914A05D8DB84EA9AE1C0
:10484000C3DB81E080936305809158059091590501
:10485000A0915A05B0915B05809371059093720504
:10486000A0937305B093740520917605822F992744
:1048700087FD9095A92FB92F87309105E0F4FC01B1
:10488000E257FF4F0C94D26B00E023E048E16CE369
:1048900085E0EBDD26C047E0249F402D1124465FD4
:1048A00000E021E0F4CF47E0249F402D1124465F33
:1048B00000E023E0ECCF80915305823078F081EA6C
:1048C0009AE182DB60914705709148058091490526
:1048D00090914A058BDB8BE69AE176DB81E0809351
:1048E00063052EE633E044E160E08BE197E05FD8BA
:1048F00081E00E9446639C01442737FD4095542F78
:1049000064E183E287DB20910A0830910B08442799
:1049100037FD4095542F64E181E47CDB22E733E0EE
:104920004BE160E08BE197E042D829E733E042E2D7
:1049300060E08BE197E03BD82091530530E040E008
:1049400050E062E281E466DB20E833E049E260E0C7
:104950008BE197E02CD825E833E040E360E08BE181
:1049600097E025D829E134E047E361E48BE197E063
:104970001ED80F9108950F93CF93DF930E94595B38
:10498000882361F080915005811108C081E08093F7
:1049900054051092750584E1809350056FE874E129
:1049A0008BE197E089D80BE02BE04BE16BE38BE1E7
:1049B00097E09BDA80910C1790910D179C01215084
:1049C00031092A35310518F400E021E012C09C01BC
:1049D0002B5531092A35310518F400E024E009C0CF
:1049E000855B910900E08A35910510F423E001C050
:1049F00022E040E260E487E038DD8091AE079091EC
:104A0000AF07C2E1D0E0BE010E946C6B262F4CE1E3
:104A100067E48BE197E036DA8091B0079091B107B7
:104A2000BE010E946C6B262F44E267E48BE197E0A5
:104A300029DA8091BC079091BD07BE010E946C6B82
:104A4000262F47E264E48BE197E035DA8091C007D6
:104A50009091C1076EE170E00E946C6B262F47E2D7
:104A600060E48BE197E027DA8091BA079091BB0769
:104A7000BE010E946C6B262F47E26CE38BE197E04E
:104A80001ADA8091A6079091A707CEEEDFEFBE015C
:104A90000E946C6B675C7F4F0CE1262F4CE169E351
:104AA0008BE197E00E94D4658091A8079091A907B7
:104AB000BE010E946C6B675C7F4F04E2262F44E2CC
:104AC00069E38BE197E00E94D4658091B2079091F1
:104AD000B307BE010E946C6B675E7F4F062F2CE30D
:104AE00049E16CE38BE197E00E94D4658091B607C1
:104AF0009091B70762EE7FEF0E946C6B675E7F4F0D
:104B0000062F20E449E160E48BE197E00E94D46540
:104B10008091B4079091B507BE010E946C6B675EEF
:104B20007F4F062F24E449E164E48BE197E00E9483
:104B3000D4652091B2073091B307442737FD4095E3
:104B4000542F6DE08BE466DA2091B6073091B707F9
:104B5000442737FD4095542F64E18BE45BDA2091C4
:104B6000B4073091B507442737FD4095542F6BE1CA
:104B70008BE450DA0AE02AE644E16AE58BE197E04B
:104B80000E94D4652091AE073091AF07442737FDCE
:104B90004095542F6DE08EE63DDA2091AA073091C2
:104BA000AB07442737FD4095542F64E18EE632DA97
:104BB0002091B0073091B107442737FD4095542F1D
:104BC0006BE18EE627DA2091A6073091A7074427EC
:104BD00037FD4095542F60E388E01CDA2091A2074E
:104BE0003091A307442737FD4095542F67E388E0B1
:104BF00011DA2091A8073091A907442737FD409585
:104C0000542F6EE388E006DA02E324E24CE364E129
:104C10008BE197E00E94D4652091BA073091BB07E1
:104C2000442737FD4095542F60E38BE2F3D9209160
:104C3000C0073091C107442737FD4095542F67E3E3
:104C40008BE2E8D92091BC073091BD07442737FD9E
:104C50004095542F6EE38BE2DDD92CE833E04DE034
:104C600060E08BE197E00E94D71C21E933E04DE042
:104C700061E18BE197E00E94D71C209102173091EF
:104C80000317442737FD4095542F6DE089E1C2D9C1
:104C900024E933E044E161E18BE197E00E94D71C15
:104CA0002091081730910917442737FD4095542F5C
:104CB00064E189E1AFD927E933E04BE161E18BE1C0
:104CC00097E00E94D71C20910C1730910D174427B4
:104CD00037FD4095542F6BE189E19CD92AE933E0F7
:104CE00040E36BE48BE197E00E94D71C26ED33E0B4
:104CF00040E36FE58BE197E00E94D71C2091040808
:104D000030910508442737FD4095542F60E389E62C
:104D100081D921EE33E047E36FE58BE197E00E9414
:104D2000D71C2091080830910908442737FD409589
:104D3000542F67E389E66ED9DF91CF910F910895E3
:104D4000DF92EF92FF920F931F93CF93DF930E9416
:104D5000595B882379F08091500581110BC081E067
:104D60008093690580916A058F3F41F18F5F809341
:104D70006A0524C090916905913001F580916A051A
:104D8000843688F484E18093500580917005811108
:104D900005C090935405109275050CC0813051F4F4
:104DA0001092700507C0843629F080916F0589271D
:104DB00080936F0510926A051092690580917005C5
:104DC00081110DC08091580590916B05891B8093CE
:104DD0007005823008F44AC01092700547C08130D7
:104DE00009F044C000E023E048E16DE785E03DDBE9
:104DF000409158055091590560915A0570915B0595
:104E000080916B0590916C05A0916D05B0916E0538
:104E10008A019B01081B190B2A0B3B0BCAE0C09FA0
:104E2000F001C19FF00D112420914E1630914F16C4
:104E3000E20FF31FF7FD05C0F0934F16E0934E16F7
:104E400004C010924F1610924E1620914E163091BB
:104E50004F162E5C3F4F309344162093431648174D
:104E600029F0809173078061809373076FE874E184
:104E70008BE197E00E945C1DD12C04E110E02CEE48
:104E8000E22EFF24FA9480916F058823F1F08BE2E3
:104E90008D1508F449C0CD2DC695D0E0CC0FDD1F8F
:104EA000CB57D94EE881F981CF01B8010E946C6BD4
:104EB000262FCF01B7010E946C6B40E4460F6D2D89
:104EC0008BE197E00E945B1F1CC0CD2DC695D0E002
:104ED000CC0FDD1FCF54D94EE881F981CF01B80145
:104EE0000E946C6B262FCF01B7010E946C6B40E4CF
:104EF000460F6D2D8BE197E00E945B1F82E18D15BF
:104F000098F4E881F981CF01B8010E946C6B262FDB
:104F1000CF01B7010E946C6B40E4460F61E06D0D5C
:104F20008BE197E00E945B1FD394D39480E4D81266
:104F3000AACF20EA33E04DE061E48BE197E00E94E4
:104F4000D71C2091C4023091C502442737FD4095FB
:104F5000542F6DE08EE65ED82AEA33E044E161E446
:104F60008BE197E00E94D71C2091DC0530E040E007
:104F700050E064E18EE64ED826EB33E04BE161E48D
:104F80008BE197E00E94D71C2091DA053091DB0578
:104F9000442737FD4095542F6BE18EE63BD822EC39
:104FA00033E042E261E48BE197E00E94D71C20915C
:104FB0007C0730917D07442737FD4095542F62E2EE
:104FC0008EE628D82EEC33E049E261E48BE197E0ED
:104FD0000E94D71C20914E1630914F16442737FD62
:104FE0004095542F69E28EE615D829ED33E040E371
:104FF00061E48BE197E00E94D71C20914316309129
:105000004416442737FD4095542F60E38EE602D8BE
:1050100024EE33E047E361E48BE197E00E94D71C84
:1050200020914C1630914D16442737FD4095542F52
:1050300067E38EE60E940A202FEE33E04EE361E440
:105040008BE197E00E94D71C80916F05882319F0AF
:1050500025EF33E002C029EF33E04EE36EE68BE14B
:1050600097E00E94D71C8091580590915905A09116
:105070005A05B0915B0580936B0590936C05A093E6
:105080006D05B0936E05CDB7DEB7E7E00C94C26B4B
:10509000A0E0B0E0EEE4F8E20C94A36B95E5899F04
:1050A000800111240A5D184EC0E0D0E0A5E58A9F7A
:1050B00070011124C7018958984E7C0162E3C62E05
:1050C000D12C7EECA72EBB24BA94FE01EE0FFF1F5D
:1050D000E00FF11F0190F081E02DEF3F9FE7F9070E
:1050E000C1F0D7018D919C91E81BF90BE233F105DA
:1050F00084F0CF01B6010E946C6B262FCF01B50161
:105100000E946C6B4FE3460F6C2F8BE197E00E947F
:105110005B1F2196C832D105C1F6CDB7DEB7EAE0F4
:105120000C94BF6B0E94595B882319F081E0809337
:10513000540581E0ADDF2DEF33E04DE061E48BE11C
:1051400097E00E94D71C81E00E9446639C0144279F
:1051500037FD4095542F6DE084E60C940A20FC0145
:10516000DB01552747FD50958081918148175907EC
:1051700014F45183408388279927841B950B208141
:1051800031812817390714F4918380832D913C9144
:105190001197421753071CF411965C934E932D916F
:1051A0003C9111972817390714F48D939C93089517
:1051B0004F925F926F927F928F929F92AF92BF9227
:1051C000CF92DF92EF92FF920F931F93CF93FC0148
:1051D000C62F8091A105813009F465C02091530547
:1051E000813020F0823009F4D2C1F4C180910E17D1
:1051F00090910F17A0911017B091111780939D05F2
:1052000090939E05A0939F05B093A00580916B1687
:1052100090916C16A0916D16B0916E1680939905C1
:1052200090939A05A0939B05B0939C058091771667
:1052300090917816A0917916B0917A168093950581
:1052400090939605A0939705B093980510929205B8
:105250008FEF9FEF909396028093950210929105A5
:1052600081E08093A105222309F4CAC18FEC97E263
:105270000E94E41F6091470570914805809149059F
:1052800090914A050E94F61F81EB97E20E94E41F6D
:1052900060919D0570919E0580919F059091A0055C
:1052A0000E94F61FADC140910E1750910F176091EB
:1052B00010177091111780909D0590909E05A090F9
:1052C0009F05B090A0056F01EE24D7FCE094FE2C62
:1052D00097018601080D191D2A1D3B1D1E161F066C
:1052E0002CF4035011092109310904C00D5F1F4F2F
:1052F0002F4F3F4F041B150B260B370BC801880F90
:10530000991F800F911F90939405809393054819DE
:1053100059096A097B0924E6249FC001259F900D45
:10532000112497FF03C0919581959109BF010E94B7
:105330006C6B6093910580916505882319F081E07D
:105340008093920580919205882309F4E3C04090F0
:105350006B1650906C1660906D1670906E16809063
:10536000990590909A05A0909B05B0909C05C70167
:10537000B6011E161F060CF061C00E94186A2AE9C9
:1053800039E949E950E40E94CC6A6B017C01A4E64A
:10539000B0E0A3019201281939094A095B090E946A
:1053A000356B0E94186AA70196010E947D690E94D0
:1053B000E5699B0177FF04C022273327261B370BA3
:1053C00020939105C301B2010E94186A2B013C0190
:1053D000C501B4010E94186AA70196010E941569CF
:1053E0009B01AC01C301B2010E94796987FD23C012
:1053F00060917716709178168091791690917A164F
:105400000E94186A4B015C016091950570919605A8
:1054100080919705909198050E94186AA7019601BE
:105420000E9415699B01AC01C501B4010E94C86AC4
:1054300018160CF060C080E590E067C00E94186A02
:105440002AE939E949E950E40E94CC6A6B017C0100
:10545000A4E6B0E0A3019201281939094A095B09C1
:105460000E94356B0E94186AA70196010E947D690F
:105470000E94E5699B0177FF04C022273327261B82
:10548000370B20939105C301B2010E94186A2B01CA
:105490003C01C501B4010E94186AA70196010E944F
:1054A00015699B01AC01C301B2010E94C86A1816BC
:1054B00054F16091771670917816809179169091D9
:1054C0007A160E94186A4B015C01609195057091F3
:1054D000960580919705909198050E94186AA701FA
:1054E00096010E9415699B01AC01C501B4010E949F
:1054F000796987FD08C082E08093A1051092940528
:105500001092930510C080EB9FEF909394058093C9
:10551000930509C08091930590919405892B19F406
:1055200082E08093A10580919305909194059C0160
:105530002D5E3F4F2732310568F42091950230915E
:1055400096022F3F3F4F31F428E230E0309396022D
:10555000209395022091950230919602232B11F011
:10556000009719F422E02093A10590936A16809386
:105570006916919581959109909376168093751689
:105580004C2F65E776E189E696E1E9DD39C01092B6
:105590006A161092691610927616109275168FEF91
:1055A0009FEF90939602809395021092A10522237B
:1055B00029F18EEA97E20E94E41F609147057091FD
:1055C00048058091490590914A050E94F61F84E99B
:1055D00097E212C0223090F081E997E20E94E41F26
:1055E00060914705709148058091490590914A0561
:1055F0000E94F61F81E597E20E94E41F80E001C04F
:1056000081E0CF911F910F91FF90EF90DF90CF90AD
:10561000BF90AF909F908F907F906F905F904F90D2
:105620000895CF9380918E058130F1F088F082301B
:1056300009F0BDC01092900510928F058FEF9FEF7B
:10564000909396028093950210928E05C0E0B0C0B0
:105650001092900510928F0584E190E0909396024D
:105660008093950281E0A1C08091AE079091AF0731
:1056700084369105A4F42091B0073091B107243607
:1056800031056CF4BC01621B730BAB014B565F4FD1
:105690004B32514020F428173907FCF44BC080915D
:1056A000A6079091A7078436910554F52091A80785
:1056B0003091A907243631051CF5BC01621B730B20
:1056C000AB014B565F4F4B325140D0F4281739078E
:1056D0000CF04FC0B901681B790B882777FD8095C6
:1056E000982F0E94186A26E636E646EE5FE30E948F
:1056F000CC6A0E94E5697093900560938F0547C05E
:105700008091B2079091B30784369105BCF4209143
:10571000B4073091B5072436310584F4BC01621B0F
:10572000730BAB014B565F4F4B32514038F482172D
:1057300093079CF6B901681B790B1BC08091BA07CF
:105740009091BB0784369105FCF42091BC07309101
:10575000BD0724363105C4F4BC01621B730BAB01D9
:105760004B565F4F4B32514078F4821793070CF43D
:10577000B1CF882777FD8095982F0E94186A26E67A
:1057800036E646EE5FEBB3CF82E080938E058091E4
:105790008F05909190050196039730F080919502C6
:1057A00090919602892B19F482E080938E05C1E0D6
:1057B00020918F053091900530936A1620936916D9
:1057C000319521953109309376162093751644E66C
:1057D00065E776E189E696E1C2DC8C2FCF910895EA
:1057E0002F923F924F925F926F927F928F929F92F1
:1057F000AF92BF92CF92DF92EF92FF921F93CF931F
:10580000DF9300D01F92CDB7DEB7182F82E00E9441
:10581000D9356C0184E00E94D9357C018091AD05B9
:1058200090E08A30910508F078C4FC01EB56FF4FF8
:105830000C94D26B80916B1690916C16A0916D16A2
:10584000B0916E168093740790937507A0937607B6
:10585000B09377078091771690917816A09179167A
:10586000B0917A168093780790937907A0937A077E
:10587000B0937B071092A5051092A40580910417A0
:10588000909105179093A3058093A2051092AE0501
:105890001092AC058FEF9FEF909396028093950244
:1058A0001092B4051092B3058091B6079091B70796
:1058B0008A359105B4F480915305882309F443C4D3
:1058C00083E798E20E94E41F6091470570914805C4
:1058D0008091490590914A050E94F61F81E598E262
:1058E00030C48091C0079091C1078A3F91059CF414
:1058F00060914B166E5F88E496E10E94AF4B1816DC
:1059000054F481E08093AD0588E790E0909396028F
:105910008093950213C083E08093AD05809181163A
:1059200090918216A0918316B09184168093A6055B
:105930009093A705A093A805B093A905809153055E
:10594000882309F402C48EE498E20E94E41F609167
:105950004705709148058091490590914A050E943C
:10596000F61F8DE298E20E94E41F6091A6057091F7
:10597000A7058091A8059091A9050E94F61FE5C38F
:1059800066E470E08091C0079091C107681B790BB5
:10599000882777FD8095982F0E94186A2AE939E9AF
:1059A00049E15FE30E94CC6A0E94E5697093B40507
:1059B0006093B30570936A166093691670937616B8
:1059C0006093751644E665E776E189E696E1C7DB04
:1059D0008091B3059091B40502960597D8F0809117
:1059E000950290919602892BA9F08091C007909121
:1059F000C1078B3F91053CF18091BA079091BB079D
:105A00008B3F910504F18091BC079091BD078B3FBE
:105A10009105CCF082E08093AD0580918116909144
:105A20008216A0918316B09184168093A605909358
:105A3000A705A093A805B093A9058FEF9FEF9093BA
:105A400096028093950284E08DC3EBDD8111FBCF3C
:105A500083E042C38091A2059091A305AA2797FDF8
:105A6000A095BA2F40910417509105176091061721
:105A700070910717841B950BA60BB70B880F991F06
:105A800097FF03C09195819591098734910514F092
:105A900086E490E044E6242E312C281A390AA0909E
:105AA000A607B090A7078091AF059091B00595012A
:105AB000281B390BC9010E968090AE079090AF0756
:105AC0004D9708F05DC09701F7FE04C022273327E9
:105AD0002E193F09C601D7FE04C0882799278C19C3
